{
  "_format": "hh-sol-artifact-1",
  "contractName": "PowDAO",
  "sourceName": "contracts/PowDAO.sol",
  "abi": [
    {
      "inputs": [
        {
          "internalType": "address[]",
          "name": "approvedMembers",
          "type": "address[]"
        }
      ],
      "stateMutability": "nonpayable",
      "type": "constructor"
    },
    {
      "anonymous": false,
      "inputs": [
        {
          "indexed": true,
          "internalType": "uint256",
          "name": "proposalId",
          "type": "uint256"
        },
        {
          "indexed": false,
          "internalType": "address",
          "name": "applicantAddress",
          "type": "address"
        }
      ],
      "name": "CancelProposal",
      "type": "event"
    },
    {
      "anonymous": false,
      "inputs": [
        {
          "indexed": false,
          "internalType": "uint256",
          "name": "amount",
          "type": "uint256"
        }
      ],
      "name": "Deposit",
      "type": "event"
    },
    {
      "anonymous": false,
      "inputs": [
        {
          "indexed": false,
          "internalType": "address",
          "name": "proposer",
          "type": "address"
        },
        {
          "indexed": false,
          "internalType": "uint256",
          "name": "paymentRequested",
          "type": "uint256"
        },
        {
          "indexed": false,
          "internalType": "string",
          "name": "details",
          "type": "string"
        },
        {
          "indexed": false,
          "internalType": "bool[6]",
          "name": "flags",
          "type": "bool[6]"
        },
        {
          "indexed": false,
          "internalType": "uint256",
          "name": "proposalId",
          "type": "uint256"
        },
        {
          "indexed": true,
          "internalType": "address",
          "name": "senderAddress",
          "type": "address"
        }
      ],
      "name": "ProcessedProposal",
      "type": "event"
    },
    {
      "anonymous": false,
      "inputs": [
        {
          "indexed": false,
          "internalType": "address",
          "name": "proposer",
          "type": "address"
        },
        {
          "indexed": false,
          "internalType": "uint256",
          "name": "paymentRequested",
          "type": "uint256"
        },
        {
          "indexed": false,
          "internalType": "string",
          "name": "details",
          "type": "string"
        },
        {
          "indexed": false,
          "internalType": "bool[6]",
          "name": "flags",
          "type": "bool[6]"
        },
        {
          "indexed": false,
          "internalType": "uint256",
          "name": "proposalId",
          "type": "uint256"
        },
        {
          "indexed": true,
          "internalType": "address",
          "name": "senderAddress",
          "type": "address"
        }
      ],
      "name": "SubmitProposal",
      "type": "event"
    },
    {
      "anonymous": false,
      "inputs": [
        {
          "indexed": true,
          "internalType": "uint256",
          "name": "proposalIndex",
          "type": "uint256"
        },
        {
          "indexed": true,
          "internalType": "address",
          "name": "memberAddress",
          "type": "address"
        },
        {
          "indexed": false,
          "internalType": "uint8",
          "name": "uintVote",
          "type": "uint8"
        }
      ],
      "name": "SubmitVote",
      "type": "event"
    },
    {
      "anonymous": false,
      "inputs": [
        {
          "indexed": false,
          "internalType": "address",
          "name": "proposerAddress",
          "type": "address"
        },
        {
          "indexed": false,
          "internalType": "uint256",
          "name": "amount",
          "type": "uint256"
        }
      ],
      "name": "Withdraw",
      "type": "event"
    },
    {
      "inputs": [],
      "name": "ESCROW",
      "outputs": [
        {
          "internalType": "address",
          "name": "",
          "type": "address"
        }
      ],
      "stateMutability": "view",
      "type": "function"
    },
    {
      "inputs": [],
      "name": "GUILD",
      "outputs": [
        {
          "internalType": "address",
          "name": "",
          "type": "address"
        }
      ],
      "stateMutability": "view",
      "type": "function"
    },
    {
      "inputs": [],
      "name": "TOTAL",
      "outputs": [
        {
          "internalType": "address",
          "name": "",
          "type": "address"
        }
      ],
      "stateMutability": "view",
      "type": "function"
    },
    {
      "inputs": [
        {
          "internalType": "address",
          "name": "newMemAddress",
          "type": "address"
        },
        {
          "internalType": "string",
          "name": "details",
          "type": "string"
        }
      ],
      "name": "addMember",
      "outputs": [],
      "stateMutability": "nonpayable",
      "type": "function"
    },
    {
      "inputs": [],
      "name": "deposit",
      "outputs": [
        {
          "internalType": "uint256",
          "name": "",
          "type": "uint256"
        }
      ],
      "stateMutability": "payable",
      "type": "function"
    },
    {
      "inputs": [],
      "name": "getCurrentTime",
      "outputs": [
        {
          "internalType": "uint256",
          "name": "",
          "type": "uint256"
        }
      ],
      "stateMutability": "view",
      "type": "function"
    },
    {
      "inputs": [
        {
          "internalType": "address",
          "name": "memberAddress",
          "type": "address"
        },
        {
          "internalType": "uint256",
          "name": "proposalIndex",
          "type": "uint256"
        }
      ],
      "name": "getMemberProposalVote",
      "outputs": [
        {
          "internalType": "enum PowDAO.Vote",
          "name": "",
          "type": "uint8"
        }
      ],
      "stateMutability": "view",
      "type": "function"
    },
    {
      "inputs": [
        {
          "internalType": "address",
          "name": "addressOfProposer",
          "type": "address"
        }
      ],
      "name": "getPayout",
      "outputs": [],
      "stateMutability": "nonpayable",
      "type": "function"
    },
    {
      "inputs": [
        {
          "internalType": "uint256",
          "name": "proposalId",
          "type": "uint256"
        }
      ],
      "name": "getProposalFlags",
      "outputs": [
        {
          "internalType": "bool[6]",
          "name": "",
          "type": "bool[6]"
        }
      ],
      "stateMutability": "view",
      "type": "function"
    },
    {
      "inputs": [],
      "name": "getProposalQueueLength",
      "outputs": [
        {
          "internalType": "uint256",
          "name": "",
          "type": "uint256"
        }
      ],
      "stateMutability": "view",
      "type": "function"
    },
    {
      "inputs": [
        {
          "internalType": "address",
          "name": "user",
          "type": "address"
        },
        {
          "internalType": "address",
          "name": "token",
          "type": "address"
        }
      ],
      "name": "getUserTokenBalance",
      "outputs": [
        {
          "internalType": "uint256",
          "name": "",
          "type": "uint256"
        }
      ],
      "stateMutability": "view",
      "type": "function"
    },
    {
      "inputs": [
        {
          "internalType": "uint256",
          "name": "startingTime",
          "type": "uint256"
        }
      ],
      "name": "hasVotingPeriodExpired",
      "outputs": [
        {
          "internalType": "bool",
          "name": "",
          "type": "bool"
        }
      ],
      "stateMutability": "view",
      "type": "function"
    },
    {
      "inputs": [
        {
          "internalType": "address",
          "name": "memToKick",
          "type": "address"
        },
        {
          "internalType": "string",
          "name": "details",
          "type": "string"
        }
      ],
      "name": "kickMember",
      "outputs": [],
      "stateMutability": "nonpayable",
      "type": "function"
    },
    {
      "inputs": [
        {
          "internalType": "address",
          "name": "",
          "type": "address"
        }
      ],
      "name": "members",
      "outputs": [
        {
          "internalType": "uint256",
          "name": "shares",
          "type": "uint256"
        },
        {
          "internalType": "uint256",
          "name": "loot",
          "type": "uint256"
        },
        {
          "internalType": "bool",
          "name": "exists",
          "type": "bool"
        },
        {
          "internalType": "uint256",
          "name": "jailed",
          "type": "uint256"
        }
      ],
      "stateMutability": "view",
      "type": "function"
    },
    {
      "inputs": [
        {
          "internalType": "address",
          "name": "recipient",
          "type": "address"
        }
      ],
      "name": "payout",
      "outputs": [
        {
          "internalType": "uint256",
          "name": "",
          "type": "uint256"
        }
      ],
      "stateMutability": "view",
      "type": "function"
    },
    {
      "inputs": [],
      "name": "periodDuration",
      "outputs": [
        {
          "internalType": "uint256",
          "name": "",
          "type": "uint256"
        }
      ],
      "stateMutability": "view",
      "type": "function"
    },
    {
      "inputs": [
        {
          "internalType": "uint256",
          "name": "proposalId",
          "type": "uint256"
        }
      ],
      "name": "processProposal",
      "outputs": [
        {
          "internalType": "bool",
          "name": "",
          "type": "bool"
        }
      ],
      "stateMutability": "nonpayable",
      "type": "function"
    },
    {
      "inputs": [],
      "name": "proposalCount",
      "outputs": [
        {
          "internalType": "uint256",
          "name": "",
          "type": "uint256"
        }
      ],
      "stateMutability": "view",
      "type": "function"
    },
    {
      "inputs": [
        {
          "internalType": "uint256",
          "name": "",
          "type": "uint256"
        }
      ],
      "name": "proposalQueue",
      "outputs": [
        {
          "internalType": "uint256",
          "name": "",
          "type": "uint256"
        }
      ],
      "stateMutability": "view",
      "type": "function"
    },
    {
      "inputs": [
        {
          "internalType": "uint256",
          "name": "",
          "type": "uint256"
        }
      ],
      "name": "proposals",
      "outputs": [
        {
          "internalType": "address",
          "name": "proposer",
          "type": "address"
        },
        {
          "internalType": "uint256",
          "name": "paymentRequested",
          "type": "uint256"
        },
        {
          "internalType": "uint256",
          "name": "startingTime",
          "type": "uint256"
        },
        {
          "internalType": "uint256",
          "name": "yesVotes",
          "type": "uint256"
        },
        {
          "internalType": "uint256",
          "name": "noVotes",
          "type": "uint256"
        },
        {
          "internalType": "string",
          "name": "details",
          "type": "string"
        },
        {
          "internalType": "bool",
          "name": "exists",
          "type": "bool"
        }
      ],
      "stateMutability": "view",
      "type": "function"
    },
    {
      "inputs": [
        {
          "internalType": "uint256",
          "name": "paymentRequested",
          "type": "uint256"
        },
        {
          "internalType": "string",
          "name": "details",
          "type": "string"
        }
      ],
      "name": "submitProposal",
      "outputs": [
        {
          "internalType": "uint256",
          "name": "proposalId",
          "type": "uint256"
        }
      ],
      "stateMutability": "nonpayable",
      "type": "function"
    },
    {
      "inputs": [
        {
          "internalType": "uint256",
          "name": "proposalId",
          "type": "uint256"
        },
        {
          "internalType": "uint8",
          "name": "uintVote",
          "type": "uint8"
        }
      ],
      "name": "submitVote",
      "outputs": [],
      "stateMutability": "nonpayable",
      "type": "function"
    },
    {
      "inputs": [],
      "name": "summoningTime",
      "outputs": [
        {
          "internalType": "uint256",
          "name": "",
          "type": "uint256"
        }
      ],
      "stateMutability": "view",
      "type": "function"
    },
    {
      "inputs": [],
      "name": "totalLoot",
      "outputs": [
        {
          "internalType": "uint256",
          "name": "",
          "type": "uint256"
        }
      ],
      "stateMutability": "view",
      "type": "function"
    },
    {
      "inputs": [],
      "name": "totalShares",
      "outputs": [
        {
          "internalType": "uint256",
          "name": "",
          "type": "uint256"
        }
      ],
      "stateMutability": "view",
      "type": "function"
    },
    {
      "inputs": [
        {
          "internalType": "address",
          "name": "",
          "type": "address"
        },
        {
          "internalType": "address",
          "name": "",
          "type": "address"
        }
      ],
      "name": "userTokenBalances",
      "outputs": [
        {
          "internalType": "uint256",
          "name": "",
          "type": "uint256"
        }
      ],
      "stateMutability": "view",
      "type": "function"
    },
    {
      "inputs": [],
      "name": "votingPeriodLength",
      "outputs": [
        {
          "internalType": "uint256",
          "name": "",
          "type": "uint256"
        }
      ],
      "stateMutability": "view",
      "type": "function"
    },
    {
      "stateMutability": "payable",
      "type": "receive"
    }
  ],
  "bytecode": "0x60806040526000600355600060045560006005553480156200002057600080fd5b50604051620050ea380380620050ea83398181016040528101906200004691906200022a565b60005b8151811015620001515760405180608001604052806001815260200160008152602001600115158152602001600081525060096000848481518110620000b8577f4e487b7100000000000000000000000000000000000000000000000000000000600052603260045260246000fd5b602002602001015173ffffffffffffffffffffffffffffffffffffffff1673ffffffffffffffffffffffffffffffffffffffff168152602001908152602001600020600082015181600001556020820151816001015560408201518160020160006101000a81548160ff02191690831515021790555060608201518160030155905050808062000148906200033b565b91505062000049565b5042600281905550614380600081905550603c6001819055505062000412565b600062000188620001828462000298565b6200026f565b90508083825260208201905082856020860282011115620001a857600080fd5b60005b85811015620001dc5781620001c18882620001e6565b845260208401935060208301925050600181019050620001ab565b5050509392505050565b600081519050620001f781620003f8565b92915050565b600082601f8301126200020f57600080fd5b81516200022184826020860162000171565b91505092915050565b6000602082840312156200023d57600080fd5b600082015167ffffffffffffffff8111156200025857600080fd5b6200026684828501620001fd565b91505092915050565b60006200027b6200028e565b905062000289828262000305565b919050565b6000604051905090565b600067ffffffffffffffff821115620002b657620002b5620003b8565b5b602082029050602081019050919050565b6000620002d482620002db565b9050919050565b600073ffffffffffffffffffffffffffffffffffffffff82169050919050565b6000819050919050565b6200031082620003e7565b810181811067ffffffffffffffff82111715620003325762000331620003b8565b5b80604052505050565b60006200034882620002fb565b91507fffffffffffffffffffffffffffffffffffffffffffffffffffffffffffffffff8214156200037e576200037d62000389565b5b600182019050919050565b7f4e487b7100000000000000000000000000000000000000000000000000000000600052601160045260246000fd5b7f4e487b7100000000000000000000000000000000000000000000000000000000600052604160045260246000fd5b6000601f19601f8301169050919050565b6200040381620002c7565b81146200040f57600080fd5b50565b614cc880620004226000396000f3fe6080604052600436106101a05760003560e01c80637d5b6c72116100ec578063c127c2471161008a578063e63bc62d11610064578063e63bc62d14610633578063e681c4aa14610670578063ef23f87a1461069b578063f5d54c77146106c4576101a7565b8063c127c247146105c1578063d0e30db0146105ea578063da35c66414610608576101a7565b80639425a476116100c65780639425a476146104f357806399653fbe14610530578063b2643aab14610559578063b470aade14610596576101a7565b80637d5b6c72146104745780638006745b1461049f5780638340bbce146104c8576101a7565b806329cb924d1161015957806345f2d1051161013357806345f2d105146103a4578063635e99aa146103e157806373f8fd4b1461040c578063797daf7014610449576101a7565b806329cb924d146103115780633a98ef391461033c5780633b214a7414610367576101a7565b8063013cf08b146101ac578063044a0ca8146101ef57806308ae4b0c1461022c5780630b7e9c441461026c578063230aac55146102a957806327efc086146102e6576101a7565b366101a757005b600080fd5b3480156101b857600080fd5b506101d360048036038101906101ce9190612e2e565b6106ef565b6040516101e69796959493929190613c41565b60405180910390f35b3480156101fb57600080fd5b5061021660048036038101906102119190612df2565b6107e6565b6040516102239190613ced565b60405180910390f35b34801561023857600080fd5b50610253600480360381019061024e9190612d39565b61096b565b6040516102639493929190613f43565b60405180910390f35b34801561027857600080fd5b50610293600480360381019061028e9190612d39565b6109a8565b6040516102a09190613f28565b60405180910390f35b3480156102b557600080fd5b506102d060048036038101906102cb9190612e57565b6109f1565b6040516102dd9190613f28565b60405180910390f35b3480156102f257600080fd5b506102fb610b18565b6040516103089190613ae9565b60405180910390f35b34801561031d57600080fd5b50610326610b1e565b6040516103339190613f28565b60405180910390f35b34801561034857600080fd5b50610351610b26565b60405161035e9190613f28565b60405180910390f35b34801561037357600080fd5b5061038e60048036038101906103899190612e2e565b610b2c565b60405161039b9190613f28565b60405180910390f35b3480156103b057600080fd5b506103cb60048036038101906103c69190612d62565b610b50565b6040516103d89190613f28565b60405180910390f35b3480156103ed57600080fd5b506103f6610b75565b6040516104039190613f28565b60405180910390f35b34801561041857600080fd5b50610433600480360381019061042e9190612d62565b610b7b565b6040516104409190613f28565b60405180910390f35b34801561045557600080fd5b5061045e610c02565b60405161046b9190613f28565b60405180910390f35b34801561048057600080fd5b50610489610c0f565b6040516104969190613f28565b60405180910390f35b3480156104ab57600080fd5b506104c660048036038101906104c19190612d39565b610c15565b005b3480156104d457600080fd5b506104dd610dc7565b6040516104ea9190613f28565b60405180910390f35b3480156104ff57600080fd5b5061051a60048036038101906105159190612e2e565b610dcd565b6040516105279190613cd2565b60405180910390f35b34801561053c57600080fd5b5061055760048036038101906105529190612eab565b610dee565b005b34801561056557600080fd5b50610580600480360381019061057b9190612e2e565b611529565b60405161058d9190613cb7565b60405180910390f35b3480156105a257600080fd5b506105ab6115af565b6040516105b89190613f28565b60405180910390f35b3480156105cd57600080fd5b506105e860048036038101906105e39190612d9e565b6115b5565b005b6105f261164a565b6040516105ff9190613f28565b60405180910390f35b34801561061457600080fd5b5061061d6116e2565b60405161062a9190613f28565b60405180910390f35b34801561063f57600080fd5b5061065a60048036038101906106559190612e2e565b6116e8565b6040516106679190613cd2565b60405180910390f35b34801561067c57600080fd5b50610685612210565b6040516106929190613ae9565b60405180910390f35b3480156106a757600080fd5b506106c260048036038101906106bd9190612d9e565b612216565b005b3480156106d057600080fd5b506106d96122ab565b6040516106e69190613ae9565b60405180910390f35b60086020528060005260406000206000915090508060000160009054906101000a900473ffffffffffffffffffffffffffffffffffffffff1690806001015490806002015490806003015490806004015490806006018054610750906141d1565b80601f016020809104026020016040519081016040528092919081815260200182805461077c906141d1565b80156107c95780601f1061079e576101008083540402835291602001916107c9565b820191906000526020600020905b8154815290600101906020018083116107ac57829003601f168201915b5050505050908060080160009054906101000a900460ff16905087565b6000600960008473ffffffffffffffffffffffffffffffffffffffff1673ffffffffffffffffffffffffffffffffffffffff16815260200190815260200160002060020160009054906101000a900460ff16610877576040517f08c379a000000000000000000000000000000000000000000000000000000000815260040161086e90613f08565b60405180910390fd5b60068054905082106108be576040517f08c379a00000000000000000000000000000000000000000000000000000000081526004016108b590613da8565b60405180910390fd5b60086000600684815481106108fc577f4e487b7100000000000000000000000000000000000000000000000000000000600052603260045260246000fd5b9060005260206000200154815260200190815260200160002060070160008473ffffffffffffffffffffffffffffffffffffffff1673ffffffffffffffffffffffffffffffffffffffff16815260200190815260200160002060009054906101000a900460ff16905092915050565b60096020528060005260406000206000915090508060000154908060010154908060020160009054906101000a900460ff16908060030154905084565b6000600a60008373ffffffffffffffffffffffffffffffffffffffff1673ffffffffffffffffffffffffffffffffffffffff168152602001908152602001600020549050919050565b600080339050600073ffffffffffffffffffffffffffffffffffffffff168173ffffffffffffffffffffffffffffffffffffffff161415610a67576040517f08c379a0000000000000000000000000000000000000000000000000000000008152600401610a5e90613e28565b60405180910390fd5b6000600960008373ffffffffffffffffffffffffffffffffffffffff1673ffffffffffffffffffffffffffffffffffffffff1681526020019081526020016000206003015414610aec576040517f08c379a0000000000000000000000000000000000000000000000000000000008152600401610ae390613dc8565b60405180910390fd5b610af4612b34565b610aff8585836122b1565b6001600354610b0e91906140c2565b9250505092915050565b61babe81565b600042905090565b60045481565b60068181548110610b3c57600080fd5b906000526020600020016000915090505481565b6007602052816000526040600020602052806000526040600020600091509150505481565b60055481565b6000600760008473ffffffffffffffffffffffffffffffffffffffff1673ffffffffffffffffffffffffffffffffffffffff16815260200190815260200160002060008373ffffffffffffffffffffffffffffffffffffffff1673ffffffffffffffffffffffffffffffffffffffff16815260200190815260200160002054905092915050565b6000600680549050905090565b60025481565b6000600a60008373ffffffffffffffffffffffffffffffffffffffff1673ffffffffffffffffffffffffffffffffffffffff16815260200190815260200160002054905060008111610c9c576040517f08c379a0000000000000000000000000000000000000000000000000000000008152600401610c9390613e48565b60405180910390fd5b60008114158015610cad5750600081115b15610d89578173ffffffffffffffffffffffffffffffffffffffff166108fc829081150290604051600060405180830381858888f19350505050158015610cf8573d6000803e3d6000fd5b508173ffffffffffffffffffffffffffffffffffffffff166108fc829081150290604051600060405180830381858888f19350505050158015610d3f573d6000803e3d6000fd5b50610d4a8282612412565b507f884edad9ce6fa2440d8a54cc123490eb96d2768479d49ff9c7366125a94243648282604051610d7c929190613b60565b60405180910390a1610dc3565b7f884edad9ce6fa2440d8a54cc123490eb96d2768479d49ff9c7366125a94243648282604051610dba929190613b60565b60405180910390a15b5050565b60015481565b600060015482610ddd919061406c565b610de5610b1e565b10159050919050565b6000600960003373ffffffffffffffffffffffffffffffffffffffff1673ffffffffffffffffffffffffffffffffffffffff1681526020019081526020016000206000015411610e73576040517f08c379a0000000000000000000000000000000000000000000000000000000008152600401610e6a90613e68565b60405180910390fd5b600960003373ffffffffffffffffffffffffffffffffffffffff1673ffffffffffffffffffffffffffffffffffffffff16815260200190815260200160002060020160009054906101000a900460ff16610f02576040517f08c379a0000000000000000000000000000000000000000000000000000000008152600401610ef990613e68565b60405180910390fd5b6008600083815260200190815260200160002060080160009054906101000a900460ff16610f65576040517f08c379a0000000000000000000000000000000000000000000000000000000008152600401610f5c90613d88565b60405180910390fd5b60038160ff1610610fab576040517f08c379a0000000000000000000000000000000000000000000000000000000008152600401610fa290613de8565b60405180910390fd5b60008160ff166002811115610fe9577f4e487b7100000000000000000000000000000000000000000000000000000000600052602160045260246000fd5b905060003390506000600960008373ffffffffffffffffffffffffffffffffffffffff1673ffffffffffffffffffffffffffffffffffffffff168152602001908152602001600020905060006008600087815260200190815260200160002090508060020154611057610b1e565b1015611098576040517f08c379a000000000000000000000000000000000000000000000000000000000815260040161108f90613d08565b60405180910390fd5b6110a58160020154610dcd565b156110e5576040517f08c379a00000000000000000000000000000000000000000000000000000000081526004016110dc90613e88565b60405180910390fd5b6000600281111561111f577f4e487b7100000000000000000000000000000000000000000000000000000000600052602160045260246000fd5b8160070160008573ffffffffffffffffffffffffffffffffffffffff1673ffffffffffffffffffffffffffffffffffffffff16815260200190815260200160002060009054906101000a900460ff1660028111156111a6577f4e487b7100000000000000000000000000000000000000000000000000000000600052602160045260246000fd5b146111e6576040517f08c379a00000000000000000000000000000000000000000000000000000000081526004016111dd90613e08565b60405180910390fd5b60016002811115611220577f4e487b7100000000000000000000000000000000000000000000000000000000600052602160045260246000fd5b846002811115611259577f4e487b7100000000000000000000000000000000000000000000000000000000600052602160045260246000fd5b14806112d45750600280811115611299577f4e487b7100000000000000000000000000000000000000000000000000000000600052602160045260246000fd5b8460028111156112d2577f4e487b7100000000000000000000000000000000000000000000000000000000600052602160045260246000fd5b145b611313576040517f08c379a000000000000000000000000000000000000000000000000000000000815260040161130a90613ec8565b60405180910390fd5b838160070160008573ffffffffffffffffffffffffffffffffffffffff1673ffffffffffffffffffffffffffffffffffffffff16815260200190815260200160002060006101000a81548160ff0219169083600281111561139d577f4e487b7100000000000000000000000000000000000000000000000000000000600052602160045260246000fd5b0217905550600160028111156113dc577f4e487b7100000000000000000000000000000000000000000000000000000000600052602160045260246000fd5b846002811115611415577f4e487b7100000000000000000000000000000000000000000000000000000000600052602160045260246000fd5b141561143c578160000154816003015461142f919061406c565b81600301819055506114d2565b600280811115611475577f4e487b7100000000000000000000000000000000000000000000000000000000600052602160045260246000fd5b8460028111156114ae577f4e487b7100000000000000000000000000000000000000000000000000000000600052602160045260246000fd5b14156114d157816000015481600401546114c8919061406c565b81600401819055505b5b8273ffffffffffffffffffffffffffffffffffffffff16867f6f849e98ee40014abeef61b94e2b14ebf438ae9d0b30bf27501a5e272c29ddc6876040516115199190613f88565b60405180910390a3505050505050565b611531612b34565b600860008381526020019081526020016000206005016006806020026040519081016040528092919082600680156115a3576020028201916000905b82829054906101000a900460ff1615158152602001906001019060208260000104928301926001038202915080841161156d5790505b50505050509050919050565b60005481565b6000600960003373ffffffffffffffffffffffffffffffffffffffff1673ffffffffffffffffffffffffffffffffffffffff168152602001908152602001600020600001541161163a576040517f08c379a000000000000000000000000000000000000000000000000000000000815260040161163190613e68565b60405180910390fd5b611646828260006124fa565b5050565b600080341161165857600080fd5b60003490503073ffffffffffffffffffffffffffffffffffffffff166108fc829081150290604051600060405180830381858888f193505050501580156116a3573d6000803e3d6000fd5b507f4d6ce1e535dbade1c23defba91e23b8f791ce5edc0cc320257a2b364e4e38426346040516116d39190613f28565b60405180910390a18091505090565b60035481565b600080600960003373ffffffffffffffffffffffffffffffffffffffff1673ffffffffffffffffffffffffffffffffffffffff168152602001908152602001600020600001541161176e576040517f08c379a000000000000000000000000000000000000000000000000000000000815260040161176590613e68565b60405180910390fd5b6008600083815260200190815260200160002060080160009054906101000a900460ff166117d1576040517f08c379a00000000000000000000000000000000000000000000000000000000081526004016117c890613d88565b60405180910390fd5b6000151560086000848152602001908152602001600020600501600160068110611824577f4e487b7100000000000000000000000000000000000000000000000000000000600052603260045260246000fd5b602091828204019190069054906101000a900460ff1615151461187c576040517f08c379a000000000000000000000000000000000000000000000000000000000815260040161187390613ee8565b60405180910390fd5b600860008381526020019081526020016000206002015461189b610b1e565b10156118dc576040517f08c379a00000000000000000000000000000000000000000000000000000000081526004016118d390613d08565b60405180910390fd5b6118fb6008600084815260200190815260200160002060020154610dcd565b61193a576040517f08c379a000000000000000000000000000000000000000000000000000000000815260040161193190613d68565b60405180910390fd5b4760086000848152602001908152602001600020600101541115611993576040517f08c379a000000000000000000000000000000000000000000000000000000000815260040161198a90613d48565b60405180910390fd5b60005b600680549050811015611a4b5782600682815481106119de577f4e487b7100000000000000000000000000000000000000000000000000000000600052603260045260246000fd5b90600052602060002001541415611a385760068181548110611a29577f4e487b7100000000000000000000000000000000000000000000000000000000600052603260045260246000fd5b90600052602060002001600090555b8080611a4390614574565b915050611996565b5060006008600084815260200190815260200160002090506001151581600501600460068110611aa4577f4e487b7100000000000000000000000000000000000000000000000000000000600052603260045260246000fd5b602091828204019190069054906101000a900460ff1615151415611d2557806004015481600301541115611c5e57604051806080016040528060018152602001600081526020016001151581526020016000815250600960008360000160009054906101000a900473ffffffffffffffffffffffffffffffffffffffff1673ffffffffffffffffffffffffffffffffffffffff1673ffffffffffffffffffffffffffffffffffffffff168152602001908152602001600020600082015181600001556020820151816001015560408201518160020160006101000a81548160ff02191690831515021790555060608201518160030155905050600181600501600160068110611bdc577f4e487b7100000000000000000000000000000000000000000000000000000000600052603260045260246000fd5b602091828204019190066101000a81548160ff021916908315150217905550600181600501600260068110611c3a577f4e487b7100000000000000000000000000000000000000000000000000000000600052603260045260246000fd5b602091828204019190066101000a81548160ff021916908315150217905550611d1b565b600181600501600160068110611c9d577f4e487b7100000000000000000000000000000000000000000000000000000000600052603260045260246000fd5b602091828204019190066101000a81548160ff021916908315150217905550600181600501600360068110611cfb577f4e487b7100000000000000000000000000000000000000000000000000000000600052603260045260246000fd5b602091828204019190066101000a81548160ff0219169083151502179055505b600191505061220b565b6001151581600501600560068110611d66577f4e487b7100000000000000000000000000000000000000000000000000000000600052603260045260246000fd5b602091828204019190069054906101000a900460ff1615151415611f2a57806004015481600301541115611ec1576000600960008360000160009054906101000a900473ffffffffffffffffffffffffffffffffffffffff1673ffffffffffffffffffffffffffffffffffffffff1673ffffffffffffffffffffffffffffffffffffffff16815260200190815260200160002060000181905550600181600501600160068110611e3f577f4e487b7100000000000000000000000000000000000000000000000000000000600052603260045260246000fd5b602091828204019190066101000a81548160ff021916908315150217905550600181600501600260068110611e9d577f4e487b7100000000000000000000000000000000000000000000000000000000600052603260045260246000fd5b602091828204019190066101000a81548160ff021916908315150217905550611f29565b600181600501600160068110611f00577f4e487b7100000000000000000000000000000000000000000000000000000000600052603260045260246000fd5b602091828204019190066101000a81548160ff021916908315150217905550611f2883612880565b5b5b6000151581600501600460068110611f6b577f4e487b7100000000000000000000000000000000000000000000000000000000600052603260045260246000fd5b602091828204019190069054906101000a900460ff161515148015611fe657506000151581600501600560068110611fcc577f4e487b7100000000000000000000000000000000000000000000000000000000600052603260045260246000fd5b602091828204019190069054906101000a900460ff161515145b15612209578060040154816003015411156120ef5760018160050160016006811061203a577f4e487b7100000000000000000000000000000000000000000000000000000000600052603260045260246000fd5b602091828204019190066101000a81548160ff021916908315150217905550600181600501600260068110612098577f4e487b7100000000000000000000000000000000000000000000000000000000600052603260045260246000fd5b602091828204019190066101000a81548160ff0219169083151502179055506120e98160000160009054906101000a900473ffffffffffffffffffffffffffffffffffffffff168260010154612a49565b50612157565b60018160050160016006811061212e577f4e487b7100000000000000000000000000000000000000000000000000000000600052603260045260246000fd5b602091828204019190066101000a81548160ff02191690831515021790555061215683612880565b5b8060000160009054906101000a900473ffffffffffffffffffffffffffffffffffffffff1673ffffffffffffffffffffffffffffffffffffffff167f0640d2ece6fd2e6a083b0a5043a69776caec174f9fb0e5cf9f258e22216347168260000160009054906101000a900473ffffffffffffffffffffffffffffffffffffffff1683600101548460060185600501886040516121f7959493929190613be5565b60405180910390a2600191505061220b565b505b919050565b61beef81565b6000600960003373ffffffffffffffffffffffffffffffffffffffff1673ffffffffffffffffffffffffffffffffffffffff168152602001908152602001600020600001541161229b576040517f08c379a000000000000000000000000000000000000000000000000000000000815260040161229290613e68565b60405180910390fd5b6122a7828260016124fa565b5050565b61dead81565b6006600354908060018154018082558091505060019003906000526020600020016000909190919091505560006008600060035481526020019081526020016000209050338160000160006101000a81548173ffffffffffffffffffffffffffffffffffffffff021916908373ffffffffffffffffffffffffffffffffffffffff160217905550838160010181905550428160020181905550818160050190600661235d929190612b56565b5082816006019080519060200190612376929190612bef565b5060018160080160006101000a81548160ff02191690831515021790555060003390508073ffffffffffffffffffffffffffffffffffffffff167f383ebf58fb5cab21eefd115d930e6ad2f5e043d0e913fead53481d1033e3dbbe338787876003546040516123e9959493929190613b89565b60405180910390a2600160036000828254612404919061406c565b925050819055505050505050565b600080600a60008573ffffffffffffffffffffffffffffffffffffffff1673ffffffffffffffffffffffffffffffffffffffff1681526020019081526020016000205490508281101561249a576040517f08c379a000000000000000000000000000000000000000000000000000000000815260040161249190613d28565b60405180910390fd5b600083826124a891906140c2565b905080600a60008773ffffffffffffffffffffffffffffffffffffffff1673ffffffffffffffffffffffffffffffffffffffff1681526020019081526020016000208190555060019250505092915050565b6006600354908060018154018082558091505060019003906000526020600020016000909190919091505560008114156126d05760006008600060035481526020019081526020016000209050838160000160006101000a81548173ffffffffffffffffffffffffffffffffffffffff021916908373ffffffffffffffffffffffffffffffffffffffff160217905550600081600101819055504281600201819055506040518060c0016040528060001515151581526020016000151515158152602001600015151515815260200160001515151581526020016001151515158152602001600015151515815250816005019060066125fa929190612b56565b5082816006019080519060200190612613929190612bef565b5060018160080160006101000a81548160ff0219169083151502179055503373ffffffffffffffffffffffffffffffffffffffff167f383ebf58fb5cab21eefd115d930e6ad2f5e043d0e913fead53481d1033e3dbbe8260000160009054906101000a900473ffffffffffffffffffffffffffffffffffffffff16600084600601856005016003546040516126ac959493929190613b04565b60405180910390a26001600360008282546126c7919061406c565b92505081905550505b600181141561287b5760006008600060035481526020019081526020016000209050838160000160006101000a81548173ffffffffffffffffffffffffffffffffffffffff021916908373ffffffffffffffffffffffffffffffffffffffff160217905550600081600101819055504281600201819055506040518060c0016040528060001515151581526020016000151515158152602001600015151515815260200160001515151581526020016000151515158152602001600115151515815250816005019060066127a5929190612b56565b50828160060190805190602001906127be929190612bef565b5060018160080160006101000a81548160ff0219169083151502179055503373ffffffffffffffffffffffffffffffffffffffff167f383ebf58fb5cab21eefd115d930e6ad2f5e043d0e913fead53481d1033e3dbbe8260000160009054906101000a900473ffffffffffffffffffffffffffffffffffffffff1660008460060185600501600354604051612857959493929190613b04565b60405180910390a2600160036000828254612872919061406c565b92505081905550505b505050565b6000600960003373ffffffffffffffffffffffffffffffffffffffff1673ffffffffffffffffffffffffffffffffffffffff1681526020019081526020016000206000015411612905576040517f08c379a00000000000000000000000000000000000000000000000000000000081526004016128fc90613e68565b60405180910390fd5b600060086000838152602001908152602001600020905080600501600360068110612959577f4e487b7100000000000000000000000000000000000000000000000000000000600052603260045260246000fd5b602091828204019190069054906101000a900460ff16156129af576040517f08c379a00000000000000000000000000000000000000000000000000000000081526004016129a690613ea8565b60405180910390fd5b6001816005016003600681106129ee577f4e487b7100000000000000000000000000000000000000000000000000000000600052603260045260246000fd5b602091828204019190066101000a81548160ff021916908315150217905550817fc215fed6680bb02d323dc3f8b8f85241572607538426059c9232601bd293c3be33604051612a3d9190613ae9565b60405180910390a25050565b600080600090506000600a60008673ffffffffffffffffffffffffffffffffffffffff1673ffffffffffffffffffffffffffffffffffffffff1681526020019081526020016000205414612ada57600a60008573ffffffffffffffffffffffffffffffffffffffff1673ffffffffffffffffffffffffffffffffffffffff1681526020019081526020016000205490505b8083612ae6919061406c565b600a60008673ffffffffffffffffffffffffffffffffffffffff1673ffffffffffffffffffffffffffffffffffffffff16815260200190815260200160002081905550600191505092915050565b6040518060c00160405280600690602082028036833780820191505090505090565b826006601f01602090048101928215612bde5791602002820160005b83821115612baf57835183826101000a81548160ff0219169083151502179055509260200192600101602081600001049283019260010302612b72565b8015612bdc5782816101000a81549060ff0219169055600101602081600001049283019260010302612baf565b505b509050612beb9190612c75565b5090565b828054612bfb906141d1565b90600052602060002090601f016020900481019282612c1d5760008555612c64565b82601f10612c3657805160ff1916838001178555612c64565b82800160010185558215612c64579182015b82811115612c63578251825591602001919060010190612c48565b5b509050612c719190612c75565b5090565b5b80821115612c8e576000816000905550600101612c76565b5090565b6000612ca5612ca084613fc8565b613fa3565b905082815260208101848484011115612cbd57600080fd5b612cc884828561418f565b509392505050565b600081359050612cdf81614c4d565b92915050565b600082601f830112612cf657600080fd5b8135612d06848260208601612c92565b91505092915050565b600081359050612d1e81614c64565b92915050565b600081359050612d3381614c7b565b92915050565b600060208284031215612d4b57600080fd5b6000612d5984828501612cd0565b91505092915050565b60008060408385031215612d7557600080fd5b6000612d8385828601612cd0565b9250506020612d9485828601612cd0565b9150509250929050565b60008060408385031215612db157600080fd5b6000612dbf85828601612cd0565b925050602083013567ffffffffffffffff811115612ddc57600080fd5b612de885828601612ce5565b9150509250929050565b60008060408385031215612e0557600080fd5b6000612e1385828601612cd0565b9250506020612e2485828601612d0f565b9150509250929050565b600060208284031215612e4057600080fd5b6000612e4e84828501612d0f565b91505092915050565b60008060408385031215612e6a57600080fd5b6000612e7885828601612d0f565b925050602083013567ffffffffffffffff811115612e9557600080fd5b612ea185828601612ce5565b9150509250929050565b60008060408385031215612ebe57600080fd5b6000612ecc85828601612d0f565b9250506020612edd85828601612d24565b9150509250929050565b6000612ef38383613783565b60208301905092915050565b612f0881614103565b82525050565b612f1781614022565b612f218184614050565b9250612f2c82613ff9565b8060005b83811015612f5d578151612f448782612ee7565b9650612f4f83614043565b925050600181019050612f30565b505050505050565b612f6e8161402d565b612f788184614050565b925082612f8483614003565b600080156132b0575b836001602003820110156132af578154612faf87612faa83614203565b613783565b602087019650612fc787612fc283614321565b613783565b602087019650612fdf87612fda8361443f565b613783565b602087019650612ff787612ff28361448d565b613783565b60208701965061300f8761300a836144a7565b613783565b60208701965061302787613022836144c1565b613783565b60208701965061303f8761303a836144db565b613783565b60208701965061305787613052836144f5565b613783565b60208701965061306f8761306a8361450f565b613783565b6020870196506130878761308283614529565b613783565b60208701965061309f8761309a8361421d565b613783565b6020870196506130b7876130b283614237565b613783565b6020870196506130cf876130ca83614251565b613783565b6020870196506130e7876130e28361426b565b613783565b6020870196506130ff876130fa83614285565b613783565b602087019650613117876131128361429f565b613783565b60208701965061312f8761312a836142b9565b613783565b60208701965061314787613142836142d3565b613783565b60208701965061315f8761315a836142ed565b613783565b6020870196506131778761317283614307565b613783565b60208701965061318f8761318a8361433b565b613783565b6020870196506131a7876131a283614355565b613783565b6020870196506131bf876131ba8361436f565b613783565b6020870196506131d7876131d283614389565b613783565b6020870196506131ef876131ea836143a3565b613783565b60208701965061320787613202836143bd565b613783565b60208701965061321f8761321a836143d7565b613783565b60208701965061323787613232836143f1565b613783565b60208701965061324f8761324a8361440b565b613783565b6020870196506132678761326283614425565b613783565b60208701965061327f8761327a83614459565b613783565b6020870196506132978761329283614473565b613783565b60208701965060018301925050602081019050612f8d565b5b60011561377b5781546001156132df576132d2876132cd83614203565b613783565b6020870196506001820191505b600115613305576132f8876132f383614321565b613783565b6020870196506001820191505b60011561332b5761331e876133198361443f565b613783565b6020870196506001820191505b600115613351576133448761333f8361448d565b613783565b6020870196506001820191505b6001156133775761336a87613365836144a7565b613783565b6020870196506001820191505b60011561339d576133908761338b836144c1565b613783565b6020870196506001820191505b6000156133c3576133b6876133b1836144db565b613783565b6020870196506001820191505b6000156133e9576133dc876133d7836144f5565b613783565b6020870196506001820191505b60001561340f57613402876133fd8361450f565b613783565b6020870196506001820191505b600015613435576134288761342383614529565b613783565b6020870196506001820191505b60001561345b5761344e876134498361421d565b613783565b6020870196506001820191505b600015613481576134748761346f83614237565b613783565b6020870196506001820191505b6000156134a75761349a8761349583614251565b613783565b6020870196506001820191505b6000156134cd576134c0876134bb8361426b565b613783565b6020870196506001820191505b6000156134f3576134e6876134e183614285565b613783565b6020870196506001820191505b6000156135195761350c876135078361429f565b613783565b6020870196506001820191505b60001561353f576135328761352d836142b9565b613783565b6020870196506001820191505b6000156135655761355887613553836142d3565b613783565b6020870196506001820191505b60001561358b5761357e87613579836142ed565b613783565b6020870196506001820191505b6000156135b1576135a48761359f83614307565b613783565b6020870196506001820191505b6000156135d7576135ca876135c58361433b565b613783565b6020870196506001820191505b6000156135fd576135f0876135eb83614355565b613783565b6020870196506001820191505b60001561362357613616876136118361436f565b613783565b6020870196506001820191505b6000156136495761363c8761363783614389565b613783565b6020870196506001820191505b60001561366f576136628761365d836143a3565b613783565b6020870196506001820191505b6000156136955761368887613683836143bd565b613783565b6020870196506001820191505b6000156136bb576136ae876136a9836143d7565b613783565b6020870196506001820191505b6000156136e1576136d4876136cf836143f1565b613783565b6020870196506001820191505b600015613707576136fa876136f58361440b565b613783565b6020870196506001820191505b60001561372d576137208761371b83614425565b613783565b6020870196506001820191505b600015613753576137468761374183614459565b613783565b6020870196506001820191505b6000156137795761376c8761376783614473565b613783565b6020870196506001820191505b505b505050505050565b61378c81614115565b82525050565b61379b81614115565b82525050565b6137aa8161416b565b82525050565b6137b98161417d565b82525050565b60006137ca82614038565b6137d4818561405b565b93506137e481856020860161419e565b6137ed81614679565b840191505092915050565b60008154613805816141d1565b61380f818661405b565b9450600182166000811461382a576001811461383c5761386f565b60ff198316865260208601935061386f565b6138458561400d565b60005b8381101561386757815481890152600182019150602081019050613848565b808801955050505b50505092915050565b6000613885601d8361405b565b91506138908261482a565b602082019050919050565b60006138a860228361405b565b91506138b382614853565b604082019050919050565b60006138cb602b8361405b565b91506138d6826148a2565b604082019050919050565b60006138ee602a8361405b565b91506138f9826148f1565b604082019050919050565b6000613911601d8361405b565b915061391c82614940565b602082019050919050565b600061393460178361405b565b915061393f82614969565b602082019050919050565b600061395760258361405b565b915061396282614992565b604082019050919050565b600061397a60138361405b565b9150613985826149e1565b602082019050919050565b600061399d60188361405b565b91506139a882614a0a565b602082019050919050565b60006139c060158361405b565b91506139cb82614a33565b602082019050919050565b60006139e360248361405b565b91506139ee82614a5c565b604082019050919050565b6000613a0660248361405b565b9150613a1182614aab565b604082019050919050565b6000613a2960228361405b565b9150613a3482614afa565b604082019050919050565b6000613a4c60238361405b565b9150613a5782614b49565b604082019050919050565b6000613a6f601d8361405b565b9150613a7a82614b98565b602082019050919050565b6000613a9260288361405b565b9150613a9d82614bc1565b604082019050919050565b6000613ab560158361405b565b9150613ac082614c10565b602082019050919050565b613ad481614154565b82525050565b613ae38161415e565b82525050565b6000602082019050613afe6000830184612eff565b92915050565b600061014082019050613b1a6000830188612eff565b613b2760208301876137b0565b8181036040830152613b3981866137f8565b9050613b486060830185612f65565b613b56610120830184613acb565b9695505050505050565b6000604082019050613b756000830185612eff565b613b826020830184613acb565b9392505050565b600061014082019050613b9f6000830188612eff565b613bac6020830187613acb565b8181036040830152613bbe81866137bf565b9050613bcd6060830185612f0e565b613bdb610120830184613acb565b9695505050505050565b600061014082019050613bfb6000830188612eff565b613c086020830187613acb565b8181036040830152613c1a81866137f8565b9050613c296060830185612f65565b613c37610120830184613acb565b9695505050505050565b600060e082019050613c56600083018a612eff565b613c636020830189613acb565b613c706040830188613acb565b613c7d6060830187613acb565b613c8a6080830186613acb565b81810360a0830152613c9c81856137bf565b9050613cab60c0830184613792565b98975050505050505050565b600060c082019050613ccc6000830184612f0e565b92915050565b6000602082019050613ce76000830184613792565b92915050565b6000602082019050613d0260008301846137a1565b92915050565b60006020820190508181036000830152613d2181613878565b9050919050565b60006020820190508181036000830152613d418161389b565b9050919050565b60006020820190508181036000830152613d61816138be565b9050919050565b60006020820190508181036000830152613d81816138e1565b9050919050565b60006020820190508181036000830152613da181613904565b9050919050565b60006020820190508181036000830152613dc181613927565b9050919050565b60006020820190508181036000830152613de18161394a565b9050919050565b60006020820190508181036000830152613e018161396d565b9050919050565b60006020820190508181036000830152613e2181613990565b9050919050565b60006020820190508181036000830152613e41816139b3565b9050919050565b60006020820190508181036000830152613e61816139d6565b9050919050565b60006020820190508181036000830152613e81816139f9565b9050919050565b60006020820190508181036000830152613ea181613a1c565b9050919050565b60006020820190508181036000830152613ec181613a3f565b9050919050565b60006020820190508181036000830152613ee181613a62565b9050919050565b60006020820190508181036000830152613f0181613a85565b9050919050565b60006020820190508181036000830152613f2181613aa8565b9050919050565b6000602082019050613f3d6000830184613acb565b92915050565b6000608082019050613f586000830187613acb565b613f656020830186613acb565b613f726040830185613792565b613f7f6060830184613acb565b95945050505050565b6000602082019050613f9d6000830184613ada565b92915050565b6000613fad613fbe565b9050613fb98282614543565b919050565b6000604051905090565b600067ffffffffffffffff821115613fe357613fe261464a565b5b613fec82614679565b9050602081019050919050565b6000819050919050565b6000819050919050565b60008190508160005260206000209050919050565b600060069050919050565b600060069050919050565b600081519050919050565b6000602082019050919050565b600081905092915050565b600082825260208201905092915050565b600061407782614154565b915061408283614154565b9250827fffffffffffffffffffffffffffffffffffffffffffffffffffffffffffffffff038211156140b7576140b66145bd565b5b828201905092915050565b60006140cd82614154565b91506140d883614154565b9250828210156140eb576140ea6145bd565b5b828203905092915050565b600060ff82169050919050565b600061410e82614134565b9050919050565b60008115159050919050565b600081905061412f82614c39565b919050565b600073ffffffffffffffffffffffffffffffffffffffff82169050919050565b6000819050919050565b600060ff82169050919050565b600061417682614121565b9050919050565b600061418882614154565b9050919050565b82818337600083830152505050565b60005b838110156141bc5780820151818401526020810190506141a1565b838111156141cb576000848401525b50505050565b600060028204905060018216806141e957607f821691505b602082108114156141fd576141fc61461b565b5b50919050565b60006142166142118361468a565b6140f6565b9050919050565b600061423061422b836147f6565b6140f6565b9050919050565b600061424a61424583614803565b6140f6565b9050919050565b600061426461425f8361481d565b6140f6565b9050919050565b600061427e61427983614697565b6140f6565b9050919050565b6000614298614293836146a4565b6140f6565b9050919050565b60006142b26142ad836146b1565b6140f6565b9050919050565b60006142cc6142c7836146be565b6140f6565b9050919050565b60006142e66142e1836146cb565b6140f6565b9050919050565b60006143006142fb836146d8565b6140f6565b9050919050565b600061431a614315836146e5565b6140f6565b9050919050565b600061433461432f83614810565b6140f6565b9050919050565b600061434e614349836146f2565b6140f6565b9050919050565b6000614368614363836146ff565b6140f6565b9050919050565b600061438261437d83614719565b6140f6565b9050919050565b600061439c61439783614726565b6140f6565b9050919050565b60006143b66143b183614733565b6140f6565b9050919050565b60006143d06143cb83614740565b6140f6565b9050919050565b60006143ea6143e58361474d565b6140f6565b9050919050565b60006144046143ff8361475a565b6140f6565b9050919050565b600061441e61441983614767565b6140f6565b9050919050565b600061443861443383614774565b6140f6565b9050919050565b600061445261444d8361470c565b6140f6565b9050919050565b600061446c61446783614781565b6140f6565b9050919050565b60006144866144818361478e565b6140f6565b9050919050565b60006144a061449b8361479b565b6140f6565b9050919050565b60006144ba6144b5836147a8565b6140f6565b9050919050565b60006144d46144cf836147b5565b6140f6565b9050919050565b60006144ee6144e9836147c2565b6140f6565b9050919050565b6000614508614503836147cf565b6140f6565b9050919050565b600061452261451d836147dc565b6140f6565b9050919050565b600061453c614537836147e9565b6140f6565b9050919050565b61454c82614679565b810181811067ffffffffffffffff8211171561456b5761456a61464a565b5b80604052505050565b600061457f82614154565b91507fffffffffffffffffffffffffffffffffffffffffffffffffffffffffffffffff8214156145b2576145b16145bd565b5b600182019050919050565b7f4e487b7100000000000000000000000000000000000000000000000000000000600052601160045260246000fd5b7f4e487b7100000000000000000000000000000000000000000000000000000000600052602160045260246000fd5b7f4e487b7100000000000000000000000000000000000000000000000000000000600052602260045260246000fd5b7f4e487b7100000000000000000000000000000000000000000000000000000000600052604160045260246000fd5b6000601f19601f8301169050919050565b60008160001c9050919050565b60008160681c9050919050565b60008160701c9050919050565b60008160781c9050919050565b60008160801c9050919050565b60008160881c9050919050565b60008160901c9050919050565b60008160981c9050919050565b60008160a01c9050919050565b60008160a81c9050919050565b60008160101c9050919050565b60008160b01c9050919050565b60008160b81c9050919050565b60008160c01c9050919050565b60008160c81c9050919050565b60008160d01c9050919050565b60008160d81c9050919050565b60008160e01c9050919050565b60008160e81c9050919050565b60008160f01c9050919050565b60008160f81c9050919050565b60008160181c9050919050565b60008160201c9050919050565b60008160281c9050919050565b60008160301c9050919050565b60008160381c9050919050565b60008160401c9050919050565b60008160481c9050919050565b60008160501c9050919050565b60008160581c9050919050565b60008160081c9050919050565b60008160601c9050919050565b7f766f74696e6720706572696f6420686173206e6f742073746172746564000000600082015250565b7f45524332303a20646563726561736564207061796f75742062656c6f77207a6560008201527f726f000000000000000000000000000000000000000000000000000000000000602082015250565b7f44414f2062616c616e636520746f6f206c6f7720746f2061636365707420746860008201527f652070726f706f73616c2e000000000000000000000000000000000000000000602082015250565b7f70726f706f73616c20766f74696e6720706572696f6420686173206e6f74206560008201527f7870697265642079657400000000000000000000000000000000000000000000602082015250565b7f546869732070726f706f73616c20646f6573206e6f742065786973742e000000600082015250565b7f70726f706f73616c20646f6573206e6f74206578697374000000000000000000600082015250565b7f70726f706f73616c206170706c6963616e74206d757374206e6f74206265206a60008201527f61696c6564000000000000000000000000000000000000000000000000000000602082015250565b7f6d757374206265206c657373207468616e203300000000000000000000000000600082015250565b7f6d656d6265722068617320616c726561647920766f7465640000000000000000600082015250565b7f6170706c6963616e742063616e6e6f7420626520300000000000000000000000600082015250565b7f596f7520646f206e6f74206861766520616e792066756e647320617661696c6160008201527f626c652e00000000000000000000000000000000000000000000000000000000602082015250565b7f596f757220617265206e6f742061206d656d626572206f662074686520506f7760008201527f44414f2e00000000000000000000000000000000000000000000000000000000602082015250565b7f70726f706f73616c20766f74696e6720706572696f642068617320657870697260008201527f6564000000000000000000000000000000000000000000000000000000000000602082015250565b7f70726f706f73616c2068617320616c7265616479206265656e2063616e63656c60008201527f6c65640000000000000000000000000000000000000000000000000000000000602082015250565b7f766f7465206d7573742062652065697468657220596573206f72204e6f000000600082015250565b7f546869732070726f706f73616c2068617320616c7265616479206265656e207060008201527f726f636573736564000000000000000000000000000000000000000000000000602082015250565b7f6d656d62657220646f6573206e6f742065786973740000000000000000000000600082015250565b60038110614c4a57614c496145ec565b5b50565b614c5681614103565b8114614c6157600080fd5b50565b614c6d81614154565b8114614c7857600080fd5b50565b614c848161415e565b8114614c8f57600080fd5b5056fea2646970667358221220819a04e481070689c4147a387c62624b704adffb0c97d013c219428329512ddd64736f6c63430008040033",
  "linkReferences": {},
  "deployedLinkReferences": {}
}