{
  "_format": "hh-sol-artifact-1",
  "contractName": "PowDAO",
  "sourceName": "contracts/PowDAO.sol",
  "abi": [
    {
      "inputs": [
        {
          "internalType": "address[]",
          "name": "approvedMembers",
          "type": "address[]"
        }
      ],
      "stateMutability": "nonpayable",
      "type": "constructor"
    },
    {
      "anonymous": false,
      "inputs": [
        {
          "indexed": true,
          "internalType": "uint256",
          "name": "proposalId",
          "type": "uint256"
        },
        {
          "indexed": false,
          "internalType": "address",
          "name": "applicantAddress",
          "type": "address"
        }
      ],
      "name": "CancelProposal",
      "type": "event"
    },
    {
      "anonymous": false,
      "inputs": [
        {
          "indexed": true,
          "internalType": "address",
          "name": "memberAddress",
          "type": "address"
        },
        {
          "indexed": false,
          "internalType": "uint256",
          "name": "sharesToBurn",
          "type": "uint256"
        },
        {
          "indexed": false,
          "internalType": "uint256",
          "name": "lootToBurn",
          "type": "uint256"
        }
      ],
      "name": "Ragequit",
      "type": "event"
    },
    {
      "anonymous": false,
      "inputs": [
        {
          "indexed": false,
          "internalType": "uint256",
          "name": "paymentRequested",
          "type": "uint256"
        },
        {
          "indexed": false,
          "internalType": "address",
          "name": "paymentToken",
          "type": "address"
        },
        {
          "indexed": false,
          "internalType": "string",
          "name": "details",
          "type": "string"
        },
        {
          "indexed": false,
          "internalType": "bool[6]",
          "name": "flags",
          "type": "bool[6]"
        },
        {
          "indexed": false,
          "internalType": "uint256",
          "name": "proposalId",
          "type": "uint256"
        },
        {
          "indexed": true,
          "internalType": "address",
          "name": "delegateKey",
          "type": "address"
        },
        {
          "indexed": true,
          "internalType": "address",
          "name": "memberAddress",
          "type": "address"
        }
      ],
      "name": "SubmitProposal",
      "type": "event"
    },
    {
      "anonymous": false,
      "inputs": [
        {
          "indexed": true,
          "internalType": "uint256",
          "name": "proposalIndex",
          "type": "uint256"
        },
        {
          "indexed": true,
          "internalType": "address",
          "name": "delegateKey",
          "type": "address"
        },
        {
          "indexed": true,
          "internalType": "address",
          "name": "memberAddress",
          "type": "address"
        },
        {
          "indexed": false,
          "internalType": "uint8",
          "name": "uintVote",
          "type": "uint8"
        }
      ],
      "name": "SubmitVote",
      "type": "event"
    },
    {
      "anonymous": false,
      "inputs": [
        {
          "indexed": true,
          "internalType": "address",
          "name": "memberAddress",
          "type": "address"
        },
        {
          "indexed": false,
          "internalType": "address",
          "name": "token",
          "type": "address"
        },
        {
          "indexed": false,
          "internalType": "uint256",
          "name": "amount",
          "type": "uint256"
        }
      ],
      "name": "Withdraw",
      "type": "event"
    },
    {
      "inputs": [
        {
          "internalType": "uint256",
          "name": "",
          "type": "uint256"
        }
      ],
      "name": "approvedTokens",
      "outputs": [
        {
          "internalType": "address",
          "name": "",
          "type": "address"
        }
      ],
      "stateMutability": "view",
      "type": "function"
    },
    {
      "inputs": [
        {
          "internalType": "uint256",
          "name": "proposalId",
          "type": "uint256"
        }
      ],
      "name": "cancelProposal",
      "outputs": [],
      "stateMutability": "nonpayable",
      "type": "function"
    },
    {
      "inputs": [],
      "name": "getCurrentPeriod",
      "outputs": [
        {
          "internalType": "uint256",
          "name": "",
          "type": "uint256"
        }
      ],
      "stateMutability": "view",
      "type": "function"
    },
    {
      "inputs": [
        {
          "internalType": "address",
          "name": "memberAddress",
          "type": "address"
        },
        {
          "internalType": "uint256",
          "name": "proposalIndex",
          "type": "uint256"
        }
      ],
      "name": "getMemberProposalVote",
      "outputs": [
        {
          "internalType": "enum PowDAO.Vote",
          "name": "",
          "type": "uint8"
        }
      ],
      "stateMutability": "view",
      "type": "function"
    },
    {
      "inputs": [
        {
          "internalType": "uint256",
          "name": "proposalId",
          "type": "uint256"
        }
      ],
      "name": "getProposalFlags",
      "outputs": [
        {
          "internalType": "bool[6]",
          "name": "",
          "type": "bool[6]"
        }
      ],
      "stateMutability": "view",
      "type": "function"
    },
    {
      "inputs": [],
      "name": "getProposalQueueLength",
      "outputs": [
        {
          "internalType": "uint256",
          "name": "",
          "type": "uint256"
        }
      ],
      "stateMutability": "view",
      "type": "function"
    },
    {
      "inputs": [],
      "name": "getTokenCount",
      "outputs": [
        {
          "internalType": "uint256",
          "name": "",
          "type": "uint256"
        }
      ],
      "stateMutability": "view",
      "type": "function"
    },
    {
      "inputs": [
        {
          "internalType": "address",
          "name": "user",
          "type": "address"
        },
        {
          "internalType": "address",
          "name": "token",
          "type": "address"
        }
      ],
      "name": "getUserTokenBalance",
      "outputs": [
        {
          "internalType": "uint256",
          "name": "",
          "type": "uint256"
        }
      ],
      "stateMutability": "view",
      "type": "function"
    },
    {
      "inputs": [
        {
          "internalType": "uint256",
          "name": "startingPeriod",
          "type": "uint256"
        }
      ],
      "name": "hasVotingPeriodExpired",
      "outputs": [
        {
          "internalType": "bool",
          "name": "",
          "type": "bool"
        }
      ],
      "stateMutability": "view",
      "type": "function"
    },
    {
      "inputs": [
        {
          "internalType": "address",
          "name": "",
          "type": "address"
        }
      ],
      "name": "members",
      "outputs": [
        {
          "internalType": "uint256",
          "name": "shares",
          "type": "uint256"
        },
        {
          "internalType": "uint256",
          "name": "loot",
          "type": "uint256"
        },
        {
          "internalType": "bool",
          "name": "exists",
          "type": "bool"
        },
        {
          "internalType": "uint256",
          "name": "jailed",
          "type": "uint256"
        }
      ],
      "stateMutability": "view",
      "type": "function"
    },
    {
      "inputs": [],
      "name": "periodDuration",
      "outputs": [
        {
          "internalType": "uint256",
          "name": "",
          "type": "uint256"
        }
      ],
      "stateMutability": "view",
      "type": "function"
    },
    {
      "inputs": [],
      "name": "proposalCount",
      "outputs": [
        {
          "internalType": "uint256",
          "name": "",
          "type": "uint256"
        }
      ],
      "stateMutability": "view",
      "type": "function"
    },
    {
      "inputs": [
        {
          "internalType": "uint256",
          "name": "",
          "type": "uint256"
        }
      ],
      "name": "proposalQueue",
      "outputs": [
        {
          "internalType": "uint256",
          "name": "",
          "type": "uint256"
        }
      ],
      "stateMutability": "view",
      "type": "function"
    },
    {
      "inputs": [
        {
          "internalType": "uint256",
          "name": "",
          "type": "uint256"
        }
      ],
      "name": "proposals",
      "outputs": [
        {
          "internalType": "address",
          "name": "proposer",
          "type": "address"
        },
        {
          "internalType": "uint256",
          "name": "paymentRequested",
          "type": "uint256"
        },
        {
          "internalType": "address",
          "name": "paymentToken",
          "type": "address"
        },
        {
          "internalType": "uint256",
          "name": "startingPeriod",
          "type": "uint256"
        },
        {
          "internalType": "uint256",
          "name": "yesVotes",
          "type": "uint256"
        },
        {
          "internalType": "uint256",
          "name": "noVotes",
          "type": "uint256"
        },
        {
          "internalType": "string",
          "name": "details",
          "type": "string"
        }
      ],
      "stateMutability": "view",
      "type": "function"
    },
    {
      "inputs": [
        {
          "internalType": "address",
          "name": "applicant",
          "type": "address"
        },
        {
          "internalType": "uint256",
          "name": "paymentRequested",
          "type": "uint256"
        },
        {
          "internalType": "address",
          "name": "paymentToken",
          "type": "address"
        },
        {
          "internalType": "string",
          "name": "details",
          "type": "string"
        }
      ],
      "name": "submitProposal",
      "outputs": [
        {
          "internalType": "uint256",
          "name": "proposalId",
          "type": "uint256"
        }
      ],
      "stateMutability": "nonpayable",
      "type": "function"
    },
    {
      "inputs": [
        {
          "internalType": "uint256",
          "name": "proposalIndex",
          "type": "uint256"
        },
        {
          "internalType": "uint8",
          "name": "uintVote",
          "type": "uint8"
        }
      ],
      "name": "submitVote",
      "outputs": [],
      "stateMutability": "nonpayable",
      "type": "function"
    },
    {
      "inputs": [],
      "name": "summoningTime",
      "outputs": [
        {
          "internalType": "uint256",
          "name": "",
          "type": "uint256"
        }
      ],
      "stateMutability": "view",
      "type": "function"
    },
    {
      "inputs": [],
      "name": "totalGuildBankTokens",
      "outputs": [
        {
          "internalType": "uint256",
          "name": "",
          "type": "uint256"
        }
      ],
      "stateMutability": "view",
      "type": "function"
    },
    {
      "inputs": [],
      "name": "totalLoot",
      "outputs": [
        {
          "internalType": "uint256",
          "name": "",
          "type": "uint256"
        }
      ],
      "stateMutability": "view",
      "type": "function"
    },
    {
      "inputs": [],
      "name": "totalShares",
      "outputs": [
        {
          "internalType": "uint256",
          "name": "",
          "type": "uint256"
        }
      ],
      "stateMutability": "view",
      "type": "function"
    },
    {
      "inputs": [
        {
          "internalType": "address",
          "name": "",
          "type": "address"
        },
        {
          "internalType": "address",
          "name": "",
          "type": "address"
        }
      ],
      "name": "userTokenBalances",
      "outputs": [
        {
          "internalType": "uint256",
          "name": "",
          "type": "uint256"
        }
      ],
      "stateMutability": "view",
      "type": "function"
    },
    {
      "inputs": [],
      "name": "votingPeriodLength",
      "outputs": [
        {
          "internalType": "uint256",
          "name": "",
          "type": "uint256"
        }
      ],
      "stateMutability": "view",
      "type": "function"
    },
    {
      "inputs": [
        {
          "internalType": "address",
          "name": "token",
          "type": "address"
        },
        {
          "internalType": "uint256",
          "name": "amount",
          "type": "uint256"
        }
      ],
      "name": "withdrawBalance",
      "outputs": [],
      "stateMutability": "nonpayable",
      "type": "function"
    }
  ],
  "bytecode": "0x608060405260006004556000600555600060065560006007553480156200002557600080fd5b5060405162002c6238038062002c6283398181016040528101906200004b919062000217565b60005b81518110156200015657604051806080016040528060018152602001600081526020016001151581526020016000815250600a6000848481518110620000bd577f4e487b7100000000000000000000000000000000000000000000000000000000600052603260045260246000fd5b602002602001015173ffffffffffffffffffffffffffffffffffffffff1673ffffffffffffffffffffffffffffffffffffffff168152602001908152602001600020600082015181600001556020820151816001015560408201518160020160006101000a81548160ff0219169083151502179055506060820151816003015590505080806200014d9062000328565b9150506200004e565b5050620003ff565b6000620001756200016f8462000285565b6200025c565b905080838252602082019050828560208602820111156200019557600080fd5b60005b85811015620001c95781620001ae8882620001d3565b84526020840193506020830192505060018101905062000198565b5050509392505050565b600081519050620001e481620003e5565b92915050565b600082601f830112620001fc57600080fd5b81516200020e8482602086016200015e565b91505092915050565b6000602082840312156200022a57600080fd5b600082015167ffffffffffffffff8111156200024557600080fd5b6200025384828501620001ea565b91505092915050565b6000620002686200027b565b9050620002768282620002f2565b919050565b6000604051905090565b600067ffffffffffffffff821115620002a357620002a2620003a5565b5b602082029050602081019050919050565b6000620002c182620002c8565b9050919050565b600073ffffffffffffffffffffffffffffffffffffffff82169050919050565b6000819050919050565b620002fd82620003d4565b810181811067ffffffffffffffff821117156200031f576200031e620003a5565b5b80604052505050565b60006200033582620002e8565b91507fffffffffffffffffffffffffffffffffffffffffffffffffffffffffffffffff8214156200036b576200036a62000376565b5b600182019050919050565b7f4e487b7100000000000000000000000000000000000000000000000000000000600052601160045260246000fd5b7f4e487b7100000000000000000000000000000000000000000000000000000000600052604160045260246000fd5b6000601f19601f8301169050919050565b620003f081620002b4565b8114620003fc57600080fd5b50565b612853806200040f6000396000f3fe608060405234801561001057600080fd5b506004361061014d5760003560e01c806378a89567116100c35780639d1722cb1161007c5780639d1722cb146103e5578063b2643aab14610403578063b470aade14610433578063da35c66414610451578063e0a8f6f51461046f578063fb76d99e1461048b5761014d565b806378a8956714610321578063797daf701461033f5780637d5b6c721461035d5780638340bbce1461037b5780639425a4761461039957806399653fbe146103c95761014d565b80631dafede0116101155780631dafede0146102255780633a98ef39146102555780633b214a741461027357806345f2d105146102a3578063635e99aa146102d357806373f8fd4b146102f15761014d565b8063013cf08b14610152578063044a0ca814610188578063086146d2146101b857806308ae4b0c146101d65780630cf20cc914610209575b600080fd5b61016c60048036038101906101679190611b01565b6104bb565b60405161017f9796959493929190611e73565b60405180910390f35b6101a2600480360381019061019d9190611a21565b6105c5565b6040516101af9190611f1f565b60405180910390f35b6101c061074a565b6040516101cd91906120da565b60405180910390f35b6101f060048036038101906101eb91906119bc565b61077a565b6040516102009493929190612151565b60405180910390f35b610223600480360381019061021e9190611a21565b6107b7565b005b61023f600480360381019061023a9190611b01565b6107c5565b60405161024c9190611e2f565b60405180910390f35b61025d610804565b60405161026a91906120da565b60405180910390f35b61028d60048036038101906102889190611b01565b61080a565b60405161029a91906120da565b60405180910390f35b6102bd60048036038101906102b891906119e5565b61082e565b6040516102ca91906120da565b60405180910390f35b6102db610853565b6040516102e891906120da565b60405180910390f35b61030b600480360381019061030691906119e5565b610859565b60405161031891906120da565b60405180910390f35b6103296108e0565b60405161033691906120da565b60405180910390f35b6103476108ed565b60405161035491906120da565b60405180910390f35b6103656108fa565b60405161037291906120da565b60405180910390f35b610383610900565b60405161039091906120da565b60405180910390f35b6103b360048036038101906103ae9190611b01565b610906565b6040516103c09190611f04565b60405180910390f35b6103e360048036038101906103de9190611b2a565b61092e565b005b6103ed610f4e565b6040516103fa91906120da565b60405180910390f35b61041d60048036038101906104189190611b01565b610f54565b60405161042a9190611ee9565b60405180910390f35b61043b610fda565b60405161044891906120da565b60405180910390f35b610459610fe0565b60405161046691906120da565b60405180910390f35b61048960048036038101906104849190611b01565b610fe6565b005b6104a560048036038101906104a09190611a5d565b61124f565b6040516104b291906120da565b60405180910390f35b600b6020528060005260406000206000915090508060000160009054906101000a900473ffffffffffffffffffffffffffffffffffffffff16908060010154908060020160009054906101000a900473ffffffffffffffffffffffffffffffffffffffff1690806003015490806004015490806005015490806007018054610542906123c7565b80601f016020809104026020016040519081016040528092919081815260200182805461056e906123c7565b80156105bb5780601f10610590576101008083540402835291602001916105bb565b820191906000526020600020905b81548152906001019060200180831161059e57829003601f168201915b5050505050905087565b6000600a60008473ffffffffffffffffffffffffffffffffffffffff1673ffffffffffffffffffffffffffffffffffffffff16815260200190815260200160002060020160009054906101000a900460ff16610656576040517f08c379a000000000000000000000000000000000000000000000000000000000815260040161064d906120ba565b60405180910390fd5b600880549050821061069d576040517f08c379a000000000000000000000000000000000000000000000000000000000815260040161069490611f3a565b60405180910390fd5b600b6000600884815481106106db577f4e487b7100000000000000000000000000000000000000000000000000000000600052603260045260246000fd5b9060005260206000200154815260200190815260200160002060080160008473ffffffffffffffffffffffffffffffffffffffff1673ffffffffffffffffffffffffffffffffffffffff16815260200190815260200160002060009054906101000a900460ff16905092915050565b60006107756000546107676002544261137390919063ffffffff16565b61138990919063ffffffff16565b905090565b600a6020528060005260406000206000915090508060000154908060010154908060020160009054906101000a900460ff16908060030154905084565b6107c1828261139f565b5050565b600381815481106107d557600080fd5b906000526020600020016000915054906101000a900473ffffffffffffffffffffffffffffffffffffffff1681565b60055481565b6008818154811061081a57600080fd5b906000526020600020016000915090505481565b6009602052816000526040600020602052806000526040600020600091509150505481565b60065481565b6000600960008473ffffffffffffffffffffffffffffffffffffffff1673ffffffffffffffffffffffffffffffffffffffff16815260200190815260200160002060008373ffffffffffffffffffffffffffffffffffffffff1673ffffffffffffffffffffffffffffffffffffffff16815260200190815260200160002054905092915050565b6000600380549050905090565b6000600880549050905090565b60025481565b60015481565b600061091d6001548361158990919063ffffffff16565b61092561074a565b10159050919050565b6000600a60003373ffffffffffffffffffffffffffffffffffffffff1673ffffffffffffffffffffffffffffffffffffffff1681526020019081526020016000206000015411806109c157506000600a60003373ffffffffffffffffffffffffffffffffffffffff1673ffffffffffffffffffffffffffffffffffffffff16815260200190815260200160002060010154115b610a00576040517f08c379a00000000000000000000000000000000000000000000000000000000081526004016109f790611fba565b60405180910390fd5b60003390506000600a60008373ffffffffffffffffffffffffffffffffffffffff1673ffffffffffffffffffffffffffffffffffffffff16815260200190815260200160002090506000600b6000868152602001908152602001600020905060038460ff1610610aa5576040517f08c379a0000000000000000000000000000000000000000000000000000000008152600401610a9c90611f7a565b60405180910390fd5b60008460ff166002811115610ae3577f4e487b7100000000000000000000000000000000000000000000000000000000600052602160045260246000fd5b905060006002811115610b1f577f4e487b7100000000000000000000000000000000000000000000000000000000600052602160045260246000fd5b8260080160008673ffffffffffffffffffffffffffffffffffffffff1673ffffffffffffffffffffffffffffffffffffffff16815260200190815260200160002060009054906101000a900460ff166002811115610ba6577f4e487b7100000000000000000000000000000000000000000000000000000000600052602160045260246000fd5b14610be6576040517f08c379a0000000000000000000000000000000000000000000000000000000008152600401610bdd90611f9a565b60405180910390fd5b60016002811115610c20577f4e487b7100000000000000000000000000000000000000000000000000000000600052602160045260246000fd5b816002811115610c59577f4e487b7100000000000000000000000000000000000000000000000000000000600052602160045260246000fd5b1480610cd45750600280811115610c99577f4e487b7100000000000000000000000000000000000000000000000000000000600052602160045260246000fd5b816002811115610cd2577f4e487b7100000000000000000000000000000000000000000000000000000000600052602160045260246000fd5b145b610d13576040517f08c379a0000000000000000000000000000000000000000000000000000000008152600401610d0a9061207a565b60405180910390fd5b808260080160008673ffffffffffffffffffffffffffffffffffffffff1673ffffffffffffffffffffffffffffffffffffffff16815260200190815260200160002060006101000a81548160ff02191690836002811115610d9d577f4e487b7100000000000000000000000000000000000000000000000000000000600052602160045260246000fd5b021790555060016002811115610ddc577f4e487b7100000000000000000000000000000000000000000000000000000000600052602160045260246000fd5b816002811115610e15577f4e487b7100000000000000000000000000000000000000000000000000000000600052602160045260246000fd5b1415610e4357610e368360000154836004015461158990919063ffffffff16565b8260040181905550610ee0565b600280811115610e7c577f4e487b7100000000000000000000000000000000000000000000000000000000600052602160045260246000fd5b816002811115610eb5577f4e487b7100000000000000000000000000000000000000000000000000000000600052602160045260246000fd5b1415610edf57610ed68360000154836005015461158990919063ffffffff16565b82600501819055505b5b8373ffffffffffffffffffffffffffffffffffffffff163373ffffffffffffffffffffffffffffffffffffffff16877f29bf0061f2faa9daa482f061b116195432d435536d8af4ae6b3c5dd78223679b88604051610f3e9190612196565b60405180910390a4505050505050565b60075481565b610f5c6117a2565b600b6000838152602001908152602001600020600601600680602002604051908101604052809291908260068015610fce576020028201916000905b82829054906101000a900460ff16151581526020019060010190602082600001049283019260010382029150808411610f985790505b50505050509050919050565b60005481565b60045481565b6000600b600083815260200190815260200160002090508060060160006006811061103a577f4e487b7100000000000000000000000000000000000000000000000000000000600052603260045260246000fd5b602091828204019190069054906101000a900460ff1615611090576040517f08c379a000000000000000000000000000000000000000000000000000000000815260040161108790611fda565b60405180910390fd5b806006016003600681106110cd577f4e487b7100000000000000000000000000000000000000000000000000000000600052603260045260246000fd5b602091828204019190069054906101000a900460ff1615611123576040517f08c379a000000000000000000000000000000000000000000000000000000000815260040161111a9061205a565b60405180910390fd5b8060000160009054906101000a900473ffffffffffffffffffffffffffffffffffffffff1673ffffffffffffffffffffffffffffffffffffffff163373ffffffffffffffffffffffffffffffffffffffff16146111b5576040517f08c379a00000000000000000000000000000000000000000000000000000000081526004016111ac9061203a565b60405180910390fd5b6001816006016003600681106111f4577f4e487b7100000000000000000000000000000000000000000000000000000000600052603260045260246000fd5b602091828204019190066101000a81548160ff021916908315150217905550817fc215fed6680bb02d323dc3f8b8f85241572607538426059c9232601bd293c3be336040516112439190611e2f565b60405180910390a25050565b60008073ffffffffffffffffffffffffffffffffffffffff168573ffffffffffffffffffffffffffffffffffffffff1614156112c0576040517f08c379a00000000000000000000000000000000000000000000000000000000081526004016112b790611ffa565b60405180910390fd5b6000600a60008773ffffffffffffffffffffffffffffffffffffffff1673ffffffffffffffffffffffffffffffffffffffff1681526020019081526020016000206003015414611345576040517f08c379a000000000000000000000000000000000000000000000000000000000815260040161133c90611f5a565b60405180910390fd5b61134d6117a2565b6113598585858461159f565b600160045461136891906122d7565b915050949350505050565b6000818361138191906122d7565b905092915050565b6000818361139791906122a6565b905092915050565b80600960003373ffffffffffffffffffffffffffffffffffffffff1673ffffffffffffffffffffffffffffffffffffffff16815260200190815260200160002060008473ffffffffffffffffffffffffffffffffffffffff1673ffffffffffffffffffffffffffffffffffffffff16815260200190815260200160002054101561145e576040517f08c379a00000000000000000000000000000000000000000000000000000000081526004016114559061201a565b60405180910390fd5b61146933838361170a565b8173ffffffffffffffffffffffffffffffffffffffff1663a9059cbb33836040518363ffffffff1660e01b81526004016114a4929190611e4a565b602060405180830381600087803b1580156114be57600080fd5b505af11580156114d2573d6000803e3d6000fd5b505050506040513d601f19601f820116820180604052508101906114f69190611ad8565b611535576040517f08c379a000000000000000000000000000000000000000000000000000000000815260040161152c9061209a565b60405180910390fd5b3373ffffffffffffffffffffffffffffffffffffffff167f9b1bfa7fa9ee420a16e124f794c35ac9f90472acc99140eb2f6447c714cad8eb838360405161157d929190611e4a565b60405180910390a25050565b600081836115979190612250565b905092915050565b6000600b600060045481526020019081526020016000209050338160000160006101000a81548173ffffffffffffffffffffffffffffffffffffffff021916908373ffffffffffffffffffffffffffffffffffffffff160217905550848160010181905550838160020160006101000a81548173ffffffffffffffffffffffffffffffffffffffff021916908373ffffffffffffffffffffffffffffffffffffffff160217905550818160060190600661165a9291906117c4565b508281600701908051906020019061167392919061185d565b5060003390508073ffffffffffffffffffffffffffffffffffffffff163373ffffffffffffffffffffffffffffffffffffffff167fb75b71f7c3935a42f9e19d9a7d652af02fb1a5c57b186b2019f524cb9d59aca2888888886004546040516116e09594939291906120f5565b60405180910390a36001600460008282546116fb9190612250565b92505081905550505050505050565b80600960008573ffffffffffffffffffffffffffffffffffffffff1673ffffffffffffffffffffffffffffffffffffffff16815260200190815260200160002060008473ffffffffffffffffffffffffffffffffffffffff1673ffffffffffffffffffffffffffffffffffffffff168152602001908152602001600020600082825461179691906122d7565b92505081905550505050565b6040518060c00160405280600690602082028036833780820191505090505090565b826006601f0160209004810192821561184c5791602002820160005b8382111561181d57835183826101000a81548160ff02191690831515021790555092602001926001016020816000010492830192600103026117e0565b801561184a5782816101000a81549060ff021916905560010160208160000104928301926001030261181d565b505b50905061185991906118e3565b5090565b828054611869906123c7565b90600052602060002090601f01602090048101928261188b57600085556118d2565b82601f106118a457805160ff19168380011785556118d2565b828001600101855582156118d2579182015b828111156118d15782518255916020019190600101906118b6565b5b5090506118df91906118e3565b5090565b5b808211156118fc5760008160009055506001016118e4565b5090565b600061191361190e846121d6565b6121b1565b90508281526020810184848401111561192b57600080fd5b611936848285612385565b509392505050565b60008135905061194d816127c1565b92915050565b600081519050611962816127d8565b92915050565b600082601f83011261197957600080fd5b8135611989848260208601611900565b91505092915050565b6000813590506119a1816127ef565b92915050565b6000813590506119b681612806565b92915050565b6000602082840312156119ce57600080fd5b60006119dc8482850161193e565b91505092915050565b600080604083850312156119f857600080fd5b6000611a068582860161193e565b9250506020611a178582860161193e565b9150509250929050565b60008060408385031215611a3457600080fd5b6000611a428582860161193e565b9250506020611a5385828601611992565b9150509250929050565b60008060008060808587031215611a7357600080fd5b6000611a818782880161193e565b9450506020611a9287828801611992565b9350506040611aa38782880161193e565b925050606085013567ffffffffffffffff811115611ac057600080fd5b611acc87828801611968565b91505092959194509250565b600060208284031215611aea57600080fd5b6000611af884828501611953565b91505092915050565b600060208284031215611b1357600080fd5b6000611b2184828501611992565b91505092915050565b60008060408385031215611b3d57600080fd5b6000611b4b85828601611992565b9250506020611b5c858286016119a7565b9150509250929050565b6000611b728383611be4565b60208301905092915050565b611b878161230b565b82525050565b611b9681612211565b611ba08184612234565b9250611bab82612207565b8060005b83811015611bdc578151611bc38782611b66565b9650611bce83612227565b925050600181019050611baf565b505050505050565b611bed8161231d565b82525050565b611bfc8161231d565b82525050565b611c0b81612373565b82525050565b6000611c1c8261221c565b611c26818561223f565b9350611c36818560208601612394565b611c3f81612515565b840191505092915050565b6000611c5760178361223f565b9150611c6282612526565b602082019050919050565b6000611c7a60258361223f565b9150611c858261254f565b604082019050919050565b6000611c9d60138361223f565b9150611ca88261259e565b602082019050919050565b6000611cc060188361223f565b9150611ccb826125c7565b602082019050919050565b6000611ce3600c8361223f565b9150611cee826125f0565b602082019050919050565b6000611d0660238361223f565b9150611d1182612619565b604082019050919050565b6000611d2960158361223f565b9150611d3482612668565b602082019050919050565b6000611d4c60148361223f565b9150611d5782612691565b602082019050919050565b6000611d6f601e8361223f565b9150611d7a826126ba565b602082019050919050565b6000611d9260238361223f565b9150611d9d826126e3565b604082019050919050565b6000611db5601d8361223f565b9150611dc082612732565b602082019050919050565b6000611dd8600f8361223f565b9150611de38261275b565b602082019050919050565b6000611dfb60158361223f565b9150611e0682612784565b602082019050919050565b611e1a8161235c565b82525050565b611e2981612366565b82525050565b6000602082019050611e446000830184611b7e565b92915050565b6000604082019050611e5f6000830185611b7e565b611e6c6020830184611e11565b9392505050565b600060e082019050611e88600083018a611b7e565b611e956020830189611e11565b611ea26040830188611b7e565b611eaf6060830187611e11565b611ebc6080830186611e11565b611ec960a0830185611e11565b81810360c0830152611edb8184611c11565b905098975050505050505050565b600060c082019050611efe6000830184611b8d565b92915050565b6000602082019050611f196000830184611bf3565b92915050565b6000602082019050611f346000830184611c02565b92915050565b60006020820190508181036000830152611f5381611c4a565b9050919050565b60006020820190508181036000830152611f7381611c6d565b9050919050565b60006020820190508181036000830152611f9381611c90565b9050919050565b60006020820190508181036000830152611fb381611cb3565b9050919050565b60006020820190508181036000830152611fd381611cd6565b9050919050565b60006020820190508181036000830152611ff381611cf9565b9050919050565b6000602082019050818103600083015261201381611d1c565b9050919050565b6000602082019050818103600083015261203381611d3f565b9050919050565b6000602082019050818103600083015261205381611d62565b9050919050565b6000602082019050818103600083015261207381611d85565b9050919050565b6000602082019050818103600083015261209381611da8565b9050919050565b600060208201905081810360008301526120b381611dcb565b9050919050565b600060208201905081810360008301526120d381611dee565b9050919050565b60006020820190506120ef6000830184611e11565b92915050565b60006101408201905061210b6000830188611e11565b6121186020830187611b7e565b818103604083015261212a8186611c11565b90506121396060830185611b8d565b612147610120830184611e11565b9695505050505050565b60006080820190506121666000830187611e11565b6121736020830186611e11565b6121806040830185611bf3565b61218d6060830184611e11565b95945050505050565b60006020820190506121ab6000830184611e20565b92915050565b60006121bb6121cc565b90506121c782826123f9565b919050565b6000604051905090565b600067ffffffffffffffff8211156121f1576121f06124e6565b5b6121fa82612515565b9050602081019050919050565b6000819050919050565b600060069050919050565b600081519050919050565b6000602082019050919050565b600081905092915050565b600082825260208201905092915050565b600061225b8261235c565b91506122668361235c565b9250827fffffffffffffffffffffffffffffffffffffffffffffffffffffffffffffffff0382111561229b5761229a61242a565b5b828201905092915050565b60006122b18261235c565b91506122bc8361235c565b9250826122cc576122cb612459565b5b828204905092915050565b60006122e28261235c565b91506122ed8361235c565b925082821015612300576122ff61242a565b5b828203905092915050565b60006123168261233c565b9050919050565b60008115159050919050565b6000819050612337826127ad565b919050565b600073ffffffffffffffffffffffffffffffffffffffff82169050919050565b6000819050919050565b600060ff82169050919050565b600061237e82612329565b9050919050565b82818337600083830152505050565b60005b838110156123b2578082015181840152602081019050612397565b838111156123c1576000848401525b50505050565b600060028204905060018216806123df57607f821691505b602082108114156123f3576123f26124b7565b5b50919050565b61240282612515565b810181811067ffffffffffffffff82111715612421576124206124e6565b5b80604052505050565b7f4e487b7100000000000000000000000000000000000000000000000000000000600052601160045260246000fd5b7f4e487b7100000000000000000000000000000000000000000000000000000000600052601260045260246000fd5b7f4e487b7100000000000000000000000000000000000000000000000000000000600052602160045260246000fd5b7f4e487b7100000000000000000000000000000000000000000000000000000000600052602260045260246000fd5b7f4e487b7100000000000000000000000000000000000000000000000000000000600052604160045260246000fd5b6000601f19601f8301169050919050565b7f70726f706f73616c20646f6573206e6f74206578697374000000000000000000600082015250565b7f70726f706f73616c206170706c6963616e74206d757374206e6f74206265206a60008201527f61696c6564000000000000000000000000000000000000000000000000000000602082015250565b7f6d757374206265206c657373207468616e203300000000000000000000000000600082015250565b7f6d656d6265722068617320616c726561647920766f7465640000000000000000600082015250565b7f6e6f742061206d656d6265720000000000000000000000000000000000000000600082015250565b7f70726f706f73616c2068617320616c7265616479206265656e2073706f6e736f60008201527f7265640000000000000000000000000000000000000000000000000000000000602082015250565b7f6170706c6963616e742063616e6e6f7420626520300000000000000000000000600082015250565b7f696e73756666696369656e742062616c616e6365000000000000000000000000600082015250565b7f736f6c656c79207468652070726f706f7365722063616e2063616e63656c0000600082015250565b7f70726f706f73616c2068617320616c7265616479206265656e2063616e63656c60008201527f6c65640000000000000000000000000000000000000000000000000000000000602082015250565b7f766f7465206d7573742062652065697468657220596573206f72204e6f000000600082015250565b7f7472616e73666572206661696c65640000000000000000000000000000000000600082015250565b7f6d656d62657220646f6573206e6f742065786973740000000000000000000000600082015250565b600381106127be576127bd612488565b5b50565b6127ca8161230b565b81146127d557600080fd5b50565b6127e18161231d565b81146127ec57600080fd5b50565b6127f88161235c565b811461280357600080fd5b50565b61280f81612366565b811461281a57600080fd5b5056fea2646970667358221220f174aad2cdf185791f1a78fd46568547f3478792fd48007909a16e42835b6b0d64736f6c63430008040033",
  "linkReferences": {},
  "deployedLinkReferences": {}
}