{
  "_format": "hh-sol-artifact-1",
  "contractName": "ReEntrancyAttack",
  "sourceName": "contracts/ReEntrancyAttack.sol",
  "abi": [
    {
      "inputs": [
        {
          "internalType": "address payable",
          "name": "contractAddress",
          "type": "address"
        }
      ],
      "stateMutability": "nonpayable",
      "type": "constructor"
    },
    {
      "anonymous": false,
      "inputs": [
        {
          "indexed": false,
          "internalType": "address",
          "name": "sender",
          "type": "address"
        },
        {
          "indexed": false,
          "internalType": "uint256",
          "name": "amount",
          "type": "uint256"
        }
      ],
      "name": "Withdraw",
      "type": "event"
    },
    {
      "inputs": [],
      "name": "deposit",
      "outputs": [],
      "stateMutability": "payable",
      "type": "function"
    },
    {
      "inputs": [],
      "name": "submitProposal",
      "outputs": [],
      "stateMutability": "nonpayable",
      "type": "function"
    },
    {
      "inputs": [],
      "name": "withdraw",
      "outputs": [],
      "stateMutability": "nonpayable",
      "type": "function"
    },
    {
      "stateMutability": "payable",
      "type": "receive"
    }
  ],
  "bytecode": "0x60806040523480156200001157600080fd5b5060405162000d3938038062000d39833981810160405281019062000037919062000279565b60008060146101000a81548160ff021916908315150217905550806000806101000a81548173ffffffffffffffffffffffffffffffffffffffff021916908373ffffffffffffffffffffffffffffffffffffffff160217905550620000be8173ffffffffffffffffffffffffffffffffffffffff16316200017f60201b620005301760201c565b60008054906101000a900473ffffffffffffffffffffffffffffffffffffffff1673ffffffffffffffffffffffffffffffffffffffff1663230aac55670de0b6b3a76400006040518263ffffffff1660e01b81526004016200012191906200031a565b602060405180830381600087803b1580156200013c57600080fd5b505af115801562000151573d6000803e3d6000fd5b505050506040513d601f19601f82011682018060405250810190620001779190620002a5565b50506200044f565b6200021f816040516024016200019691906200034c565b6040516020818303038152906040527ff5b1bba9000000000000000000000000000000000000000000000000000000007bffffffffffffffffffffffffffffffffffffffffffffffffffffffff19166020820180517bffffffffffffffffffffffffffffffffffffffffffffffffffffffff83818316178352505050506200022260201b60201c565b50565b60008151905060006a636f6e736f6c652e6c6f679050602083016000808483855afa5050505050565b6000815190506200025c816200041b565b92915050565b600081519050620002738162000435565b92915050565b6000602082840312156200028c57600080fd5b60006200029c848285016200024b565b91505092915050565b600060208284031215620002b857600080fd5b6000620002c88482850162000262565b91505092915050565b620002dc81620003b8565b82525050565b6000620002f160238362000369565b9150620002fe82620003cc565b604082019050919050565b6200031481620003ae565b82525050565b6000604082019050620003316000830184620002d1565b81810360208301526200034481620002e2565b905092915050565b600060208201905062000363600083018462000309565b92915050565b600082825260208201905092915050565b600062000387826200038e565b9050919050565b600073ffffffffffffffffffffffffffffffffffffffff82169050919050565b6000819050919050565b6000620003c582620003ae565b9050919050565b7f537570657220696d706f7274616e742070726f706f73616c2c20766f7465205960008201527f4553210000000000000000000000000000000000000000000000000000000000602082015250565b62000426816200037a565b81146200043257600080fd5b50565b6200044081620003ae565b81146200044c57600080fd5b50565b6108da806200045f6000396000f3fe6080604052600436106100385760003560e01c80633ccfd60b146101ba578063c1883902146101d1578063d0e30db0146101e8576101b5565b366101b55761007c6040518060400160405280601a81526020017f4e6f742061747461636b656420796574207769746820676173200000000000008152505a6101f2565b600060149054906101000a900460ff16610175576100ce6040518060400160405280601781526020017f5769746864726177696e672066726f6d20706f7764616f00000000000000000081525061028e565b60008054906101000a900473ffffffffffffffffffffffffffffffffffffffff1673ffffffffffffffffffffffffffffffffffffffff16638006745b306040518263ffffffff1660e01b815260040161012791906106b9565b600060405180830381600087803b15801561014157600080fd5b505af1158015610155573d6000803e3d6000fd5b505050506001600060146101000a81548160ff0219169083151502179055505b6101b36040518060400160405280600e81526020017f446f6e652061747461636b696e6700000000000000000000000000000000000081525061028e565b005b600080fd5b3480156101c657600080fd5b506101cf610327565b005b3480156101dd57600080fd5b506101e661034b565b005b6101f061048c565b005b61028a8282604051602401610208929190610724565b6040516020818303038152906040527f9710a9d0000000000000000000000000000000000000000000000000000000007bffffffffffffffffffffffffffffffffffffffffffffffffffffffff19166020820180517bffffffffffffffffffffffffffffffffffffffffffffffffffffffff83818316178352505050506105c9565b5050565b610324816040516024016102a29190610702565b6040516020818303038152906040527f41304fac000000000000000000000000000000000000000000000000000000007bffffffffffffffffffffffffffffffffffffffffffffffffffffffff19166020820180517bffffffffffffffffffffffffffffffffffffffffffffffffffffffff83818316178352505050506105c9565b50565b610349604051806060016040528060218152602001610884602191395a6101f2565b565b60008054906101000a900473ffffffffffffffffffffffffffffffffffffffff1673ffffffffffffffffffffffffffffffffffffffff1663230aac55670de0b6b3a76400006040518263ffffffff1660e01b81526004016103ac91906106d4565b602060405180830381600087803b1580156103c657600080fd5b505af11580156103da573d6000803e3d6000fd5b505050506040513d601f19601f820116820180604052508101906103fe9190610607565b5060008054906101000a900473ffffffffffffffffffffffffffffffffffffffff1673ffffffffffffffffffffffffffffffffffffffff16638006745b306040518263ffffffff1660e01b815260040161045891906106b9565b600060405180830381600087803b15801561047257600080fd5b505af1158015610486573d6000803e3d6000fd5b50505050565b60008054906101000a900473ffffffffffffffffffffffffffffffffffffffff1673ffffffffffffffffffffffffffffffffffffffff1663d0e30db0346040518263ffffffff1660e01b81526004016020604051808303818588803b1580156104f457600080fd5b505af1158015610508573d6000803e3d6000fd5b50505050506040513d601f19601f8201168201806040525081019061052d9190610607565b50565b6105c6816040516024016105449190610754565b6040516020818303038152906040527ff5b1bba9000000000000000000000000000000000000000000000000000000007bffffffffffffffffffffffffffffffffffffffffffffffffffffffff19166020820180517bffffffffffffffffffffffffffffffffffffffffffffffffffffffff83818316178352505050506105c9565b50565b60008151905060006a636f6e736f6c652e6c6f679050602083016000808483855afa5050505050565b6000815190506106018161086c565b92915050565b60006020828403121561061957600080fd5b6000610627848285016105f2565b91505092915050565b6106398161078b565b82525050565b610648816107c7565b82525050565b60006106598261076f565b610663818561077a565b93506106738185602086016107d9565b61067c8161080c565b840191505092915050565b600061069460238361077a565b915061069f8261081d565b604082019050919050565b6106b3816107bd565b82525050565b60006020820190506106ce6000830184610630565b92915050565b60006040820190506106e9600083018461063f565b81810360208301526106fa81610687565b905092915050565b6000602082019050818103600083015261071c818461064e565b905092915050565b6000604082019050818103600083015261073e818561064e565b905061074d60208301846106aa565b9392505050565b600060208201905061076960008301846106aa565b92915050565b600081519050919050565b600082825260208201905092915050565b60006107968261079d565b9050919050565b600073ffffffffffffffffffffffffffffffffffffffff82169050919050565b6000819050919050565b60006107d2826107bd565b9050919050565b60005b838110156107f75780820151818401526020810190506107dc565b83811115610806576000848401525b50505050565b6000601f19601f8301169050919050565b7f537570657220696d706f7274616e742070726f706f73616c2c20766f7465205960008201527f4553210000000000000000000000000000000000000000000000000000000000602082015250565b610875816107bd565b811461088057600080fd5b5056fe5769746864726177696e672066726f6d20506f7744414f20776974682067617320a2646970667358221220e454cfaa438775050f2a962109b5bba3f9f2ed18c25ae45ec521a3671beb848964736f6c63430008040033",
  "linkReferences": {},
  "deployedLinkReferences": {}
}